{
  "_format": "hh-sol-artifact-1",
  "contractName": "Upload",
  "sourceName": "contracts/Upload.sol",
  "abi": [
    {
      "inputs": [
        {
          "internalType": "address",
          "name": "_user",
          "type": "address"
        },
        {
          "internalType": "string",
          "name": "url",
          "type": "string"
        }
      ],
      "name": "add",
      "outputs": [],
      "stateMutability": "nonpayable",
      "type": "function"
    },
    {
      "inputs": [
        {
          "internalType": "address",
          "name": "user",
          "type": "address"
        }
      ],
      "name": "allow",
      "outputs": [],
      "stateMutability": "nonpayable",
      "type": "function"
    },
    {
      "inputs": [
        {
          "internalType": "address",
          "name": "user",
          "type": "address"
        }
      ],
      "name": "disallow",
      "outputs": [],
      "stateMutability": "nonpayable",
      "type": "function"
    },
    {
      "inputs": [
        {
          "internalType": "address",
          "name": "_user",
          "type": "address"
        }
      ],
      "name": "display",
      "outputs": [
        {
          "internalType": "string[]",
          "name": "",
          "type": "string[]"
        }
      ],
      "stateMutability": "view",
      "type": "function"
    },
    {
      "inputs": [],
      "name": "shareAccess",
      "outputs": [
        {
          "components": [
            {
              "internalType": "address",
              "name": "user",
              "type": "address"
            },
            {
              "internalType": "bool",
              "name": "access",
              "type": "bool"
            }
          ],
          "internalType": "struct Upload.Access[]",
          "name": "",
          "type": "tuple[]"
        }
      ],
      "stateMutability": "view",
      "type": "function"
    }
  ],
  "bytecode": "0x608060405234801561001057600080fd5b5061124a806100206000396000f3fe608060405234801561001057600080fd5b50600436106100575760003560e01c806336d6da551461005c578063a9ed9cb814610078578063bc8bef8114610094578063eb39113f146100b2578063ff9913e8146100e2575b600080fd5b61007660048036038101906100719190610d66565b6100fe565b005b610092600480360381019061008d9190610dc2565b61017a565b005b61009c6103a1565b6040516100a99190610ef7565b60405180910390f35b6100cc60048036038101906100c79190610dc2565b6104aa565b6040516100d99190611063565b60405180910390f35b6100fc60048036038101906100f79190610dc2565b6106c0565b005b6000808373ffffffffffffffffffffffffffffffffffffffff1673ffffffffffffffffffffffffffffffffffffffff16815260200190815260200160002081908060018154018082558091505060019003906000526020600020016000909190919091509080519060200190610175929190610b0b565b505050565b6000600160003373ffffffffffffffffffffffffffffffffffffffff1673ffffffffffffffffffffffffffffffffffffffff16815260200190815260200160002060008373ffffffffffffffffffffffffffffffffffffffff1673ffffffffffffffffffffffffffffffffffffffff16815260200190815260200160002060006101000a81548160ff02191690831515021790555060005b600260003373ffffffffffffffffffffffffffffffffffffffff1673ffffffffffffffffffffffffffffffffffffffff1681526020019081526020016000208054905081101561039d578173ffffffffffffffffffffffffffffffffffffffff16600260003373ffffffffffffffffffffffffffffffffffffffff1673ffffffffffffffffffffffffffffffffffffffff16815260200190815260200160002082815481106102c4576102c3611085565b5b9060005260206000200160000160009054906101000a900473ffffffffffffffffffffffffffffffffffffffff1673ffffffffffffffffffffffffffffffffffffffff16141561038a576000600260003373ffffffffffffffffffffffffffffffffffffffff1673ffffffffffffffffffffffffffffffffffffffff168152602001908152602001600020828154811061036157610360611085565b5b9060005260206000200160000160146101000a81548160ff02191690831515021790555061039d565b8080610395906110ed565b915050610212565b5050565b6060600260003373ffffffffffffffffffffffffffffffffffffffff1673ffffffffffffffffffffffffffffffffffffffff168152602001908152602001600020805480602002602001604051908101604052809291908181526020016000905b828210156104a1578382906000526020600020016040518060400160405290816000820160009054906101000a900473ffffffffffffffffffffffffffffffffffffffff1673ffffffffffffffffffffffffffffffffffffffff1673ffffffffffffffffffffffffffffffffffffffff1681526020016000820160149054906101000a900460ff16151515158152505081526020019060010190610402565b50505050905090565b60603373ffffffffffffffffffffffffffffffffffffffff168273ffffffffffffffffffffffffffffffffffffffff16148061056c5750600160008373ffffffffffffffffffffffffffffffffffffffff1673ffffffffffffffffffffffffffffffffffffffff16815260200190815260200160002060003373ffffffffffffffffffffffffffffffffffffffff1673ffffffffffffffffffffffffffffffffffffffff16815260200190815260200160002060009054906101000a900460ff165b6105ab576040517f08c379a00000000000000000000000000000000000000000000000000000000081526004016105a290611193565b60405180910390fd5b6000808373ffffffffffffffffffffffffffffffffffffffff1673ffffffffffffffffffffffffffffffffffffffff168152602001908152602001600020805480602002602001604051908101604052809291908181526020016000905b828210156106b5578382906000526020600020018054610628906111e2565b80601f0160208091040260200160405190810160405280929190818152602001828054610654906111e2565b80156106a15780601f10610676576101008083540402835291602001916106a1565b820191906000526020600020905b81548152906001019060200180831161068457829003601f168201915b505050505081526020019060010190610609565b505050509050919050565b60018060003373ffffffffffffffffffffffffffffffffffffffff1673ffffffffffffffffffffffffffffffffffffffff16815260200190815260200160002060008373ffffffffffffffffffffffffffffffffffffffff1673ffffffffffffffffffffffffffffffffffffffff16815260200190815260200160002060006101000a81548160ff021916908315150217905550600360003373ffffffffffffffffffffffffffffffffffffffff1673ffffffffffffffffffffffffffffffffffffffff16815260200190815260200160002060008273ffffffffffffffffffffffffffffffffffffffff1673ffffffffffffffffffffffffffffffffffffffff16815260200190815260200160002060009054906101000a900460ff16156109775760005b600260003373ffffffffffffffffffffffffffffffffffffffff1673ffffffffffffffffffffffffffffffffffffffff16815260200190815260200160002080549050811015610971578173ffffffffffffffffffffffffffffffffffffffff16600260003373ffffffffffffffffffffffffffffffffffffffff1673ffffffffffffffffffffffffffffffffffffffff168152602001908152602001600020828154811061089857610897611085565b5b9060005260206000200160000160009054906101000a900473ffffffffffffffffffffffffffffffffffffffff1673ffffffffffffffffffffffffffffffffffffffff16141561095e576001600260003373ffffffffffffffffffffffffffffffffffffffff1673ffffffffffffffffffffffffffffffffffffffff168152602001908152602001600020828154811061093557610934611085565b5b9060005260206000200160000160146101000a81548160ff021916908315150217905550610971565b8080610969906110ed565b9150506107e6565b50610b08565b600260003373ffffffffffffffffffffffffffffffffffffffff1673ffffffffffffffffffffffffffffffffffffffff16815260200190815260200160002060405180604001604052808373ffffffffffffffffffffffffffffffffffffffff168152602001600115158152509080600181540180825580915050600190039060005260206000200160009091909190915060008201518160000160006101000a81548173ffffffffffffffffffffffffffffffffffffffff021916908373ffffffffffffffffffffffffffffffffffffffff16021790555060208201518160000160146101000a81548160ff02191690831515021790555050506001600360003373ffffffffffffffffffffffffffffffffffffffff1673ffffffffffffffffffffffffffffffffffffffff16815260200190815260200160002060008373ffffffffffffffffffffffffffffffffffffffff1673ffffffffffffffffffffffffffffffffffffffff16815260200190815260200160002060006101000a81548160ff0219169083151502179055505b50565b828054610b17906111e2565b90600052602060002090601f016020900481019282610b395760008555610b80565b82601f10610b5257805160ff1916838001178555610b80565b82800160010185558215610b80579182015b82811115610b7f578251825591602001919060010190610b64565b5b509050610b8d9190610b91565b5090565b5b80821115610baa576000816000905550600101610b92565b5090565b6000604051905090565b600080fd5b600080fd5b600073ffffffffffffffffffffffffffffffffffffffff82169050919050565b6000610bed82610bc2565b9050919050565b610bfd81610be2565b8114610c0857600080fd5b50565b600081359050610c1a81610bf4565b92915050565b600080fd5b600080fd5b6000601f19601f8301169050919050565b7f4e487b7100000000000000000000000000000000000000000000000000000000600052604160045260246000fd5b610c7382610c2a565b810181811067ffffffffffffffff82111715610c9257610c91610c3b565b5b80604052505050565b6000610ca5610bae565b9050610cb18282610c6a565b919050565b600067ffffffffffffffff821115610cd157610cd0610c3b565b5b610cda82610c2a565b9050602081019050919050565b82818337600083830152505050565b6000610d09610d0484610cb6565b610c9b565b905082815260208101848484011115610d2557610d24610c25565b5b610d30848285610ce7565b509392505050565b600082601f830112610d4d57610d4c610c20565b5b8135610d5d848260208601610cf6565b91505092915050565b60008060408385031215610d7d57610d7c610bb8565b5b6000610d8b85828601610c0b565b925050602083013567ffffffffffffffff811115610dac57610dab610bbd565b5b610db885828601610d38565b9150509250929050565b600060208284031215610dd857610dd7610bb8565b5b6000610de684828501610c0b565b91505092915050565b600081519050919050565b600082825260208201905092915050565b6000819050602082019050919050565b610e2481610be2565b82525050565b60008115159050919050565b610e3f81610e2a565b82525050565b604082016000820151610e5b6000850182610e1b565b506020820151610e6e6020850182610e36565b50505050565b6000610e808383610e45565b60408301905092915050565b6000602082019050919050565b6000610ea482610def565b610eae8185610dfa565b9350610eb983610e0b565b8060005b83811015610eea578151610ed18882610e74565b9750610edc83610e8c565b925050600181019050610ebd565b5085935050505092915050565b60006020820190508181036000830152610f118184610e99565b905092915050565b600081519050919050565b600082825260208201905092915050565b6000819050602082019050919050565b600081519050919050565b600082825260208201905092915050565b60005b83811015610f7f578082015181840152602081019050610f64565b83811115610f8e576000848401525b50505050565b6000610f9f82610f45565b610fa98185610f50565b9350610fb9818560208601610f61565b610fc281610c2a565b840191505092915050565b6000610fd98383610f94565b905092915050565b6000602082019050919050565b6000610ff982610f19565b6110038185610f24565b93508360208202850161101585610f35565b8060005b8581101561105157848403895281516110328582610fcd565b945061103d83610fe1565b925060208a01995050600181019050611019565b50829750879550505050505092915050565b6000602082019050818103600083015261107d8184610fee565b905092915050565b7f4e487b7100000000000000000000000000000000000000000000000000000000600052603260045260246000fd5b7f4e487b7100000000000000000000000000000000000000000000000000000000600052601160045260246000fd5b6000819050919050565b60006110f8826110e3565b91507fffffffffffffffffffffffffffffffffffffffffffffffffffffffffffffffff82141561112b5761112a6110b4565b5b600182019050919050565b600082825260208201905092915050565b7f596f7520646f6e27742068617665206163636573730000000000000000000000600082015250565b600061117d601583611136565b915061118882611147565b602082019050919050565b600060208201905081810360008301526111ac81611170565b9050919050565b7f4e487b7100000000000000000000000000000000000000000000000000000000600052602260045260246000fd5b600060028204905060018216806111fa57607f821691505b6020821081141561120e5761120d6111b3565b5b5091905056fea26469706673582212201fb1823feb3c0c46533b81bcf96b745afb7fa9bdb91eff516abaada5bb6e18a164736f6c63430008090033",
  "linkReferences": {},
  "deployedLinkReferences": {}
}